{
  "contractName": "CrowdDonation",
  "abi": [
    {
      "inputs": [
        {
          "internalType": "address",
          "name": "donation_reciever",
          "type": "address"
        },
        {
          "internalType": "uint256",
          "name": "minContribution",
          "type": "uint256"
        },
        {
          "internalType": "uint256",
          "name": "goal",
          "type": "uint256"
        },
        {
          "internalType": "string",
          "name": "description",
          "type": "string"
        }
      ],
      "payable": false,
      "stateMutability": "nonpayable",
      "type": "constructor"
    },
    {
      "constant": true,
      "inputs": [],
      "name": "donationDescription",
      "outputs": [
        {
          "internalType": "string",
          "name": "",
          "type": "string"
        }
      ],
      "payable": false,
      "stateMutability": "view",
      "type": "function"
    },
    {
      "constant": true,
      "inputs": [],
      "name": "donationGoal",
      "outputs": [
        {
          "internalType": "uint256",
          "name": "",
          "type": "uint256"
        }
      ],
      "payable": false,
      "stateMutability": "view",
      "type": "function"
    },
    {
      "constant": true,
      "inputs": [],
      "name": "donee",
      "outputs": [
        {
          "internalType": "address",
          "name": "",
          "type": "address"
        }
      ],
      "payable": false,
      "stateMutability": "view",
      "type": "function"
    },
    {
      "constant": true,
      "inputs": [
        {
          "internalType": "address",
          "name": "",
          "type": "address"
        }
      ],
      "name": "donor",
      "outputs": [
        {
          "internalType": "bool",
          "name": "",
          "type": "bool"
        }
      ],
      "payable": false,
      "stateMutability": "view",
      "type": "function"
    },
    {
      "constant": true,
      "inputs": [],
      "name": "minimumContribution",
      "outputs": [
        {
          "internalType": "uint256",
          "name": "",
          "type": "uint256"
        }
      ],
      "payable": false,
      "stateMutability": "view",
      "type": "function"
    },
    {
      "constant": true,
      "inputs": [],
      "name": "numberDonors",
      "outputs": [
        {
          "internalType": "uint256",
          "name": "",
          "type": "uint256"
        }
      ],
      "payable": false,
      "stateMutability": "view",
      "type": "function"
    },
    {
      "constant": false,
      "inputs": [],
      "name": "contribute",
      "outputs": [],
      "payable": true,
      "stateMutability": "payable",
      "type": "function"
    },
    {
      "constant": false,
      "inputs": [],
      "name": "donate",
      "outputs": [],
      "payable": true,
      "stateMutability": "payable",
      "type": "function"
    },
    {
      "constant": true,
      "inputs": [],
      "name": "getSummary",
      "outputs": [
        {
          "internalType": "uint256",
          "name": "",
          "type": "uint256"
        },
        {
          "internalType": "uint256",
          "name": "",
          "type": "uint256"
        },
        {
          "internalType": "uint256",
          "name": "",
          "type": "uint256"
        },
        {
          "internalType": "uint256",
          "name": "",
          "type": "uint256"
        },
        {
          "internalType": "address",
          "name": "",
          "type": "address"
        }
      ],
      "payable": false,
      "stateMutability": "view",
      "type": "function"
    }
  ],
  "bytecode": "0x608060405234801561001057600080fd5b5060405161056e38038061056e8339818101604052608081101561003357600080fd5b81516020830151604080850151606086018051925194969395919493918201928464010000000082111561006657600080fd5b90830190602082018581111561007b57600080fd5b825164010000000081118282018810171561009557600080fd5b82525081516020918201929091019080838360005b838110156100c25781810151838201526020016100aa565b50505050905090810190601f1680156100ef5780820380516001836020036101000a031916815260200191505b506040525050600080546001600160a01b0319166001600160a01b0387161790555060018390558051610129906003906020840190610136565b5050600255506101d19050565b828054600181600116156101000203166002900490600052602060002090601f016020900481019282601f1061017757805160ff19168380011785556101a4565b828001600101855582156101a4579182015b828111156101a4578251825591602001919060010190610189565b506101b09291506101b4565b5090565b6101ce91905b808211156101b057600081556001016101ba565b90565b61038e806101e06000396000f3fe6080604052600436106100865760003560e01c80637eee89ba116100595780637eee89ba14610173578063937e09b114610188578063b5c9aace1461019d578063d7bb99ba14610227578063ed88c68e1461023157610086565b80634051ddac1461008b57806354f0c897146100d45780636c56e647146101055780637d2f71901461014c575b600080fd5b34801561009757600080fd5b506100a0610239565b6040805195865260208601949094528484019290925260608401526001600160a01b03166080830152519081900360a00190f35b3480156100e057600080fd5b506100e9610255565b604080516001600160a01b039092168252519081900360200190f35b34801561011157600080fd5b506101386004803603602081101561012857600080fd5b50356001600160a01b0316610264565b604080519115158252519081900360200190f35b34801561015857600080fd5b50610161610279565b60408051918252519081900360200190f35b34801561017f57600080fd5b5061016161027f565b34801561019457600080fd5b50610161610285565b3480156101a957600080fd5b506101b261028b565b6040805160208082528351818301528351919283929083019185019080838360005b838110156101ec5781810151838201526020016101d4565b50505050905090810190601f1680156102195780820380516001836020036101000a031916815260200191505b509250505060405180910390f35b61022f610319565b005b61022f61034f565b600154600254600554600054929347936001600160a01b031690565b6000546001600160a01b031681565b60046020526000908152604090205460ff1681565b60025481565b60055481565b60015481565b6003805460408051602060026001851615610100026000190190941693909304601f810184900484028201840190925281815292918301828280156103115780601f106102e657610100808354040283529160200191610311565b820191906000526020600020905b8154815290600101906020018083116102f457829003601f168201915b505050505081565b600154341161032757600080fd5b336000908152600460205260409020805460ff19166001908117909155600580549091019055565b610357610319565b56fea265627a7a723158205d19cf56ad7649a4dc46f2da1f131c17d063dbb0f2bb4622a009d0b164e51f3f64736f6c63430005100032",
  "source": "pragma solidity ^0.5.0;\n\n/**\n * @title Crowd fund smart contract, demonstration to solve problem of center crowd fund model\n * @author Duong Van Sang\n * @dev Crowd Colla is smart contract is contract that allow creators and entrepreneurs to get fund\n * from supporters for their project, and also let supporter join in approving their expense items\n */\ncontract CrowdDonation{ \n\n    // address of the person that recieves the donation\n    address public donee;\n\n    // min contribution value in ETH\n    uint public minimumContribution;\n\n    // donation goal\n\n    uint public donationGoal;\n\n    // description about your DonationGoal\n    string public donationDescription;\n\n    // a mapping list of supporter address, to check if address is supporter or not\n    mapping(address=>bool) public donor;\n\n    // current number of donator of campaign, \n    // when any one contribute money for project, he/she will be come supporter\n    uint public numberDonors;\n\n\n    modifier DoneeOnly() {\n        require(msg.sender == donee);\n        _;\n    }\n\n    modifier DonorOnly() {\n        require(donor[msg.sender]);\n        _;\n    }\n\n    /**\n     * @dev init campaign \n     * @param donation_reciever who is author and manage project\n     * @param minContribution minimum money can contribute for project (in ETH)\n     * @param description description of campaign, purpose of campaign\n     * @param goal goal\n     */\n\n    constructor(address donation_reciever, uint minContribution, uint goal, string memory description) public {  \n        donee = donation_reciever;\n        minimumContribution = minContribution;\n        donationDescription = description;\n        donationGoal = goal;\n    }\n\n    /**\n     * @dev payable of campaign, where supporter send Ethereum to contribute for campaign\n     */\n    function contribute() public payable {\n        require(msg.value > minimumContribution);\n        donor[msg.sender] = true;\n        numberDonors++;\n    }\n\n    /**\n     * @dev payable of campaign, where supporter send Ethereum to contribute for campaign\n     */\n    function donate() public payable {\n        contribute();\n    }    \n\n\n    /**\n     * @dev get summary information about campaign\n     */\n    function getSummary() public view returns (\n      uint, uint, uint, uint, address\n      ) {\n        return (\n          minimumContribution,\n          address(this).balance,\n          donationGoal,\n          numberDonors,\n          donee\n        );\n    }\n\n}\n",
  "sourcePath": "/projects/BC-Group4/ethereum/contracts/CrowdDonation.sol",
  "compiler": {
    "name": "solc",
    "version": "0.5.16+commit.9c3226ce.Emscripten.clang"
  },
  "schemaVersion": "3.4.0",
  "updatedAt": "2021-07-05T15:01:48.571Z",
  "devdoc": {
    "author": "Duong Van Sang",
    "details": "Crowd Colla is smart contract is contract that allow creators and entrepreneurs to get fund from supporters for their project, and also let supporter join in approving their expense items",
    "methods": {
      "constructor": {
        "details": "init campaign ",
        "params": {
          "description": "description of campaign, purpose of campaign",
          "donation_reciever": "who is author and manage project",
          "goal": "goal",
          "minContribution": "minimum money can contribute for project (in ETH)"
        }
      },
      "contribute()": {
        "details": "payable of campaign, where supporter send Ethereum to contribute for campaign"
      },
      "donate()": {
        "details": "payable of campaign, where supporter send Ethereum to contribute for campaign"
      },
      "getSummary()": {
        "details": "get summary information about campaign"
      }
    },
    "title": "Crowd fund smart contract, demonstration to solve problem of center crowd fund model"
  },
  "userdoc": {
    "methods": {}
  }
}