{
  "contractName": "DoneeCreator",
  "abi": [
    {
      "constant": true,
      "inputs": [
        {
          "internalType": "uint256",
          "name": "",
          "type": "uint256"
        }
      ],
      "name": "donees",
      "outputs": [
        {
          "internalType": "address",
          "name": "",
          "type": "address"
        }
      ],
      "payable": false,
      "stateMutability": "view",
      "type": "function"
    },
    {
      "constant": false,
      "inputs": [
        {
          "internalType": "uint256",
          "name": "minContribution",
          "type": "uint256"
        },
        {
          "internalType": "uint256",
          "name": "goal",
          "type": "uint256"
        },
        {
          "internalType": "string",
          "name": "description",
          "type": "string"
        }
      ],
      "name": "createDonee",
      "outputs": [],
      "payable": false,
      "stateMutability": "nonpayable",
      "type": "function"
    },
    {
      "constant": true,
      "inputs": [],
      "name": "getDeployedDonees",
      "outputs": [
        {
          "internalType": "address[]",
          "name": "",
          "type": "address[]"
        }
      ],
      "payable": false,
      "stateMutability": "view",
      "type": "function"
    }
  ],
  "bytecode": "0x608060405234801561001057600080fd5b506108d9806100206000396000f3fe608060405234801561001057600080fd5b50600436106100415760003560e01c80630f21351f1461004657806358c54e4b1461009e5780636e4d2bec14610152575b600080fd5b61004e61018b565b60408051602080825283518183015283519192839290830191858101910280838360005b8381101561008a578181015183820152602001610072565b505050509050019250505060405180910390f35b610150600480360360608110156100b457600080fd5b8135916020810135918101906060810160408201356401000000008111156100db57600080fd5b8201836020820111156100ed57600080fd5b8035906020019184600183028401116401000000008311171561010f57600080fd5b91908080601f0160208091040260200160405190810160405280939291908181526020018383808284376000920191909152509295506101ed945050505050565b005b61016f6004803603602081101561016857600080fd5b5035610302565b604080516001600160a01b039092168252519081900360200190f35b606060008054806020026020016040519081016040528092919081815260200182805480156101e357602002820191906000526020600020905b81546001600160a01b031681526001909101906020018083116101c5575b5050505050905090565b6000338484846040516101ff90610329565b80856001600160a01b03166001600160a01b0316815260200184815260200183815260200180602001828103825283818151815260200191508051906020019080838360005b8381101561025d578181015183820152602001610245565b50505050905090810190601f16801561028a5780820380516001836020036101000a031916815260200191505b5095505050505050604051809103906000f0801580156102ae573d6000803e3d6000fd5b50600080546001810182559080527f290decd9548b62a8d60345a988386fc84ba6bc95484008f6362f93160ef3e5630180546001600160a01b0319166001600160a01b039290921691909117905550505050565b6000818154811061030f57fe5b6000918252602090912001546001600160a01b0316905081565b61056e806103378339019056fe608060405234801561001057600080fd5b5060405161056e38038061056e8339818101604052608081101561003357600080fd5b81516020830151604080850151606086018051925194969395919493918201928464010000000082111561006657600080fd5b90830190602082018581111561007b57600080fd5b825164010000000081118282018810171561009557600080fd5b82525081516020918201929091019080838360005b838110156100c25781810151838201526020016100aa565b50505050905090810190601f1680156100ef5780820380516001836020036101000a031916815260200191505b506040525050600080546001600160a01b0319166001600160a01b0387161790555060018390558051610129906003906020840190610136565b5050600255506101d19050565b828054600181600116156101000203166002900490600052602060002090601f016020900481019282601f1061017757805160ff19168380011785556101a4565b828001600101855582156101a4579182015b828111156101a4578251825591602001919060010190610189565b506101b09291506101b4565b5090565b6101ce91905b808211156101b057600081556001016101ba565b90565b61038e806101e06000396000f3fe6080604052600436106100865760003560e01c80637eee89ba116100595780637eee89ba14610173578063937e09b114610188578063b5c9aace1461019d578063d7bb99ba14610227578063ed88c68e1461023157610086565b80634051ddac1461008b57806354f0c897146100d45780636c56e647146101055780637d2f71901461014c575b600080fd5b34801561009757600080fd5b506100a0610239565b6040805195865260208601949094528484019290925260608401526001600160a01b03166080830152519081900360a00190f35b3480156100e057600080fd5b506100e9610255565b604080516001600160a01b039092168252519081900360200190f35b34801561011157600080fd5b506101386004803603602081101561012857600080fd5b50356001600160a01b0316610264565b604080519115158252519081900360200190f35b34801561015857600080fd5b50610161610279565b60408051918252519081900360200190f35b34801561017f57600080fd5b5061016161027f565b34801561019457600080fd5b50610161610285565b3480156101a957600080fd5b506101b261028b565b6040805160208082528351818301528351919283929083019185019080838360005b838110156101ec5781810151838201526020016101d4565b50505050905090810190601f1680156102195780820380516001836020036101000a031916815260200191505b509250505060405180910390f35b61022f610319565b005b61022f61034f565b600154600254600554600054929347936001600160a01b031690565b6000546001600160a01b031681565b60046020526000908152604090205460ff1681565b60025481565b60055481565b60015481565b6003805460408051602060026001851615610100026000190190941693909304601f810184900484028201840190925281815292918301828280156103115780601f106102e657610100808354040283529160200191610311565b820191906000526020600020905b8154815290600101906020018083116102f457829003601f168201915b505050505081565b600154341161032757600080fd5b336000908152600460205260409020805460ff19166001908117909155600580549091019055565b610357610319565b56fea265627a7a723158205d19cf56ad7649a4dc46f2da1f131c17d063dbb0f2bb4622a009d0b164e51f3f64736f6c63430005100032a265627a7a723158206104412064cff1527de3dba6b74e1968f22773bd5e4fd9ebe397e6582ead6e5764736f6c63430005100032",
  "source": "pragma solidity ^0.5.0;\n\nimport \"./CrowdDonation.sol\";\n\n/**\n* @dev Campaign Factory contract to generate Crowdfund smart contract to run Crowd fund\n*/\ncontract DoneeCreator {\n\n    // list of campaigns\n    address[] public donees;\n    \n    /**\n    * @dev Create new campaign and send default manager is caller\n    * @param minContribution minimum money can contribute for project (in ETH)\n    * @param description description of campaign, purpose of campaign\n    */\n    function createDonee(uint minContribution, uint goal, string memory description) public {\n        address newDonee = address (new CrowdDonation(\n            msg.sender,\n            minContribution,\n            goal,\n            description\n        ));\n\n        donees.push(newDonee);\n    }\n\n    /**\n    * @dev get all deployed campaigns\n    */\n    function getDeployedDonees() public view returns (address[] memory) {\n        return donees;\n    }\n}\n",
  "sourcePath": "/projects/BC-Group4/ethereum/contracts/DoneeCreator.sol",
  "compiler": {
    "name": "solc",
    "version": "0.5.16+commit.9c3226ce.Emscripten.clang"
  },
  "schemaVersion": "3.4.0",
  "updatedAt": "2021-07-05T15:12:35.362Z",
  "networkType": "ethereum",
  "devdoc": {
    "details": "Campaign Factory contract to generate Crowdfund smart contract to run Crowd fund",
    "methods": {
      "createDonee(uint256,uint256,string)": {
        "details": "Create new campaign and send default manager is caller",
        "params": {
          "description": "description of campaign, purpose of campaign",
          "minContribution": "minimum money can contribute for project (in ETH)"
        }
      },
      "getDeployedDonees()": {
        "details": "get all deployed campaigns"
      }
    }
  },
  "userdoc": {
    "methods": {}
  }
}