{
  "contractName": "FundraiserCreator",
  "abi": [
    {
      "constant": true,
      "inputs": [
        {
          "internalType": "uint256",
          "name": "",
          "type": "uint256"
        }
      ],
      "name": "fundraisers",
      "outputs": [
        {
          "internalType": "address",
          "name": "",
          "type": "address"
        }
      ],
      "payable": false,
      "stateMutability": "view",
      "type": "function"
    },
    {
      "constant": false,
      "inputs": [
        {
          "internalType": "uint256",
          "name": "minContribution",
          "type": "uint256"
        },
        {
          "internalType": "string",
          "name": "description",
          "type": "string"
        },
        {
          "internalType": "uint256",
          "name": "donationGoal",
          "type": "uint256"
        }
      ],
      "name": "createFundraiser",
      "outputs": [],
      "payable": false,
      "stateMutability": "nonpayable",
      "type": "function"
    },
    {
      "constant": true,
      "inputs": [],
      "name": "getDeployedFundraisers",
      "outputs": [
        {
          "internalType": "address[]",
          "name": "",
          "type": "address[]"
        }
      ],
      "payable": false,
      "stateMutability": "view",
      "type": "function"
    }
  ],
  "bytecode": "0x608060405234801561001057600080fd5b50610a35806100206000396000f3fe608060405234801561001057600080fd5b50600436106100415760003560e01c8063867d812d14610046578063c47a800d1461009e578063f38f72fb1461014f575b600080fd5b61004e610188565b60408051602080825283518183015283519192839290830191858101910280838360005b8381101561008a578181015183820152602001610072565b505050509050019250505060405180910390f35b61014d600480360360608110156100b457600080fd5b813591908101906040810160208201356401000000008111156100d657600080fd5b8201836020820111156100e857600080fd5b8035906020019184600183028401116401000000008311171561010a57600080fd5b91908080601f01602080910402602001604051908101604052809392919081815260200183838082843760009201919091525092955050913592506101ea915050565b005b61016c6004803603602081101561016557600080fd5b50356102ff565b604080516001600160a01b039092168252519081900360200190f35b606060008054806020026020016040519081016040528092919081815260200182805480156101e057602002820191906000526020600020905b81546001600160a01b031681526001909101906020018083116101c2575b5050505050905090565b6000338484846040516101fc90610326565b80856001600160a01b03166001600160a01b0316815260200184815260200180602001838152602001828103825284818151815260200191508051906020019080838360005b8381101561025a578181015183820152602001610242565b50505050905090810190601f1680156102875780820380516001836020036101000a031916815260200191505b5095505050505050604051809103906000f0801580156102ab573d6000803e3d6000fd5b50600080546001810182559080527f290decd9548b62a8d60345a988386fc84ba6bc95484008f6362f93160ef3e5630180546001600160a01b0319166001600160a01b039290921691909117905550505050565b6000818154811061030c57fe5b6000918252602090912001546001600160a01b0316905081565b6106cd806103348339019056fe608060405234801561001057600080fd5b506040516106cd3803806106cd8339818101604052608081101561003357600080fd5b8151602083015160408085018051915193959294830192918464010000000082111561005e57600080fd5b90830190602082018581111561007357600080fd5b825164010000000081118282018810171561008d57600080fd5b82525081516020918201929091019080838360005b838110156100ba5781810151838201526020016100a2565b50505050905090810190601f1680156100e75780820380516001836020036101000a031916815260200191505b50604052602090810151600080546001600160a01b0319166001600160a01b038916179055600186905584519093506101269250600291850190610133565b50600355506101ce915050565b828054600181600116156101000203166002900490600052602060002090601f016020900481019282601f1061017457805160ff19168380011785556101a1565b828001600101855582156101a1579182015b828111156101a1578251825591602001919060010190610186565b506101ad9291506101b1565b5090565b6101cb91905b808211156101ad57600081556001016101b7565b90565b6104f0806101dd6000396000f3fe6080604052600436106100865760003560e01c80637eee89ba116100595780637eee89ba146101ec578063937e09b114610201578063b5c9aace14610216578063d7bb99ba146102a0578063ed88c68e146102aa57610086565b80634051ddac1461008b57806354f0c8971461014d5780636c56e6471461017e5780637d2f7190146101c5575b600080fd5b34801561009757600080fd5b506100a06102b2565b60405180878152602001868152602001858152602001846001600160a01b03166001600160a01b0316815260200180602001838152602001828103825284818151815260200191508051906020019080838360005b8381101561010d5781810151838201526020016100f5565b50505050905090810190601f16801561013a5780820380516001836020036101000a031916815260200191505b5097505050505050505060405180910390f35b34801561015957600080fd5b5061016261038d565b604080516001600160a01b039092168252519081900360200190f35b34801561018a57600080fd5b506101b1600480360360208110156101a157600080fd5b50356001600160a01b031661039c565b604080519115158252519081900360200190f35b3480156101d157600080fd5b506101da6103b1565b60408051918252519081900360200190f35b3480156101f857600080fd5b506101da6103b7565b34801561020d57600080fd5b506101da6103bd565b34801561022257600080fd5b5061022b6103c3565b6040805160208082528351818301528351919283929083019185019080838360005b8381101561026557818101518382015260200161024d565b50505050905090810190601f1680156102925780820380516001836020036101000a031916815260200191505b509250505060405180910390f35b6102a861044e565b005b6102a86104b1565b60008060008060606000600154476005546000809054906101000a90046001600160a01b03166002600354818054600181600116156101000203166002900480601f0160208091040260200160405190810160405280929190818152602001828054600181600116156101000203166002900480156103725780601f1061034757610100808354040283529160200191610372565b820191906000526020600020905b81548152906001019060200180831161035557829003601f168201915b50505050509150955095509550955095509550909192939495565b6000546001600160a01b031681565b60046020526000908152604090205460ff1681565b60035481565b60055481565b60015481565b6002805460408051602060018416156101000260001901909316849004601f810184900484028201840190925281815292918301828280156104465780601f1061041b57610100808354040283529160200191610446565b820191906000526020600020905b81548152906001019060200180831161042957829003601f168201915b505050505081565b6000546001600160a01b031633141561046657600080fd5b600154341161047457600080fd5b3360009081526004602052604090205460ff16610495576005805460010190555b336000908152600460205260409020805460ff19166001179055565b6104b961044e565b56fea265627a7a72315820ca583266cdf61c1d666a4a27252e08389c8b3f96a38f2916ba370c10d054806064736f6c63430005100032a265627a7a7231582096e0138e158768e5215e2936b4727ebe67d2119cfc0a25f3d87375a4b55dbdef64736f6c63430005100032",
  "source": "pragma solidity ^0.5.0;\n\nimport \"./Fundraiser.sol\";\n\n/**\n* @dev Campaign Factory contract to generate Crowdfund smart contract to run Crowd fund\n*/\ncontract FundraiserCreator {\n\n    // list of campaigns\n    address[] public fundraisers;\n    \n    /**\n    * @dev Create new campaign and send default manager is caller\n    * @param minContribution minimum money can contribute for project (in ETH)\n    * @param description description of campaign, purpose of campaign\n    */\n    function createFundraiser(uint minContribution, string memory description, uint donationGoal) public {\n        address fundraiser = address (new Fundraiser(\n            msg.sender,\n            minContribution,\n            description,\n            donationGoal\n        ));\n\n        fundraisers.push(fundraiser);\n    }\n\n    /**\n    * @dev get all deployed campaigns\n    */\n    function getDeployedFundraisers() public view returns (address[] memory) {\n        return fundraisers;\n    }\n}\n",
  "sourcePath": "/projects/BC-Group4/ethereum/contracts/FundraiserCreator.sol",
  "compiler": {
    "name": "solc",
    "version": "0.5.16+commit.9c3226ce.Emscripten.clang"
  },
  "schemaVersion": "3.4.0",
  "updatedAt": "2021-07-05T23:40:54.704Z",
  "networkType": "ethereum",
  "devdoc": {
    "details": "Campaign Factory contract to generate Crowdfund smart contract to run Crowd fund",
    "methods": {
      "createFundraiser(uint256,string,uint256)": {
        "details": "Create new campaign and send default manager is caller",
        "params": {
          "description": "description of campaign, purpose of campaign",
          "minContribution": "minimum money can contribute for project (in ETH)"
        }
      },
      "getDeployedFundraisers()": {
        "details": "get all deployed campaigns"
      }
    }
  },
  "userdoc": {
    "methods": {}
  }
}