{
  "contractName": "FundraiserCreator",
  "abi": [
    {
      "constant": true,
      "inputs": [
        {
          "internalType": "uint256",
          "name": "",
          "type": "uint256"
        }
      ],
      "name": "fundraisers",
      "outputs": [
        {
          "internalType": "address",
          "name": "",
          "type": "address"
        }
      ],
      "payable": false,
      "stateMutability": "view",
      "type": "function"
    },
    {
      "constant": false,
      "inputs": [
        {
          "internalType": "uint256",
          "name": "minContribution",
          "type": "uint256"
        },
        {
          "internalType": "string",
          "name": "description",
          "type": "string"
        }
      ],
      "name": "createFundraiser",
      "outputs": [],
      "payable": false,
      "stateMutability": "nonpayable",
      "type": "function"
    },
    {
      "constant": true,
      "inputs": [],
      "name": "getDeployedFundraisers",
      "outputs": [
        {
          "internalType": "address[]",
          "name": "",
          "type": "address[]"
        }
      ],
      "payable": false,
      "stateMutability": "view",
      "type": "function"
    }
  ],
  "bytecode": "0x608060405234801561001057600080fd5b5061088e806100206000396000f3fe608060405234801561001057600080fd5b50600436106100415760003560e01c8063867d812d14610046578063d66181c51461009e578063f38f72fb1461014d575b600080fd5b61004e610186565b60408051602080825283518183015283519192839290830191858101910280838360005b8381101561008a578181015183820152602001610072565b505050509050019250505060405180910390f35b61014b600480360360408110156100b457600080fd5b813591908101906040810160208201356401000000008111156100d657600080fd5b8201836020820111156100e857600080fd5b8035906020019184600183028401116401000000008311171561010a57600080fd5b91908080601f0160208091040260200160405190810160405280939291908181526020018383808284376000920191909152509295506101e8945050505050565b005b61016a6004803603602081101561016357600080fd5b50356102f4565b604080516001600160a01b039092168252519081900360200190f35b606060008054806020026020016040519081016040528092919081815260200182805480156101de57602002820191906000526020600020905b81546001600160a01b031681526001909101906020018083116101c0575b5050505050905090565b60003383836040516101f99061031b565b80846001600160a01b03166001600160a01b0316815260200183815260200180602001828103825283818151815260200191508051906020019080838360005b83811015610251578181015183820152602001610239565b50505050905090810190601f16801561027e5780820380516001836020036101000a031916815260200191505b50945050505050604051809103906000f0801580156102a1573d6000803e3d6000fd5b50600080546001810182559080527f290decd9548b62a8d60345a988386fc84ba6bc95484008f6362f93160ef3e5630180546001600160a01b0319166001600160a01b0392909216919091179055505050565b6000818154811061030157fe5b6000918252602090912001546001600160a01b0316905081565b610531806103298339019056fe608060405234801561001057600080fd5b506040516105313803806105318339818101604052606081101561003357600080fd5b8151602083015160408085018051915193959294830192918464010000000082111561005e57600080fd5b90830190602082018581111561007357600080fd5b825164010000000081118282018810171561008d57600080fd5b82525081516020918201929091019080838360005b838110156100ba5781810151838201526020016100a2565b50505050905090810190601f1680156100e75780820380516001836020036101000a031916815260200191505b506040525050600080546001600160a01b0319166001600160a01b038616179055506001829055805161012190600290602084019061012a565b505050506101c5565b828054600181600116156101000203166002900490600052602060002090601f016020900481019282601f1061016b57805160ff1916838001178555610198565b82800160010185558215610198579182015b8281111561019857825182559160200191906001019061017d565b506101a49291506101a8565b5090565b6101c291905b808211156101a457600081556001016101ae565b90565b61035d806101d46000396000f3fe60806040526004361061007b5760003560e01c8063937e09b11161004e578063937e09b114610163578063b5c9aace14610178578063d7bb99ba14610202578063ed88c68e1461020c5761007b565b80634051ddac1461008057806354f0c897146100c45780636c56e647146100f55780637eee89ba1461013c575b600080fd5b34801561008c57600080fd5b50610095610214565b604080519485526020850193909352838301919091526001600160a01b03166060830152519081900360800190f35b3480156100d057600080fd5b506100d961022d565b604080516001600160a01b039092168252519081900360200190f35b34801561010157600080fd5b506101286004803603602081101561011857600080fd5b50356001600160a01b031661023c565b604080519115158252519081900360200190f35b34801561014857600080fd5b50610151610251565b60408051918252519081900360200190f35b34801561016f57600080fd5b50610151610257565b34801561018457600080fd5b5061018d61025d565b6040805160208082528351818301528351919283929083019185019080838360005b838110156101c75781810151838201526020016101af565b50505050905090810190601f1680156101f45780820380516001836020036101000a031916815260200191505b509250505060405180910390f35b61020a6102e8565b005b61020a61031e565b600154600454600054919247926001600160a01b031690565b6000546001600160a01b031681565b60036020526000908152604090205460ff1681565b60045481565b60015481565b6002805460408051602060018416156101000260001901909316849004601f810184900484028201840190925281815292918301828280156102e05780601f106102b5576101008083540402835291602001916102e0565b820191906000526020600020905b8154815290600101906020018083116102c357829003601f168201915b505050505081565b60015434116102f657600080fd5b336000908152600360205260409020805460ff19166001908117909155600480549091019055565b6103266102e8565b56fea265627a7a7231582000cbbd917e3d1e401340b4964fc431106064c37be20c347ce0ecbc4b417cd1d564736f6c63430005100032a265627a7a723158203afa85eb3570541ff94872bf8dd4acab514e7fdf222b6a3a3f5e37db097ac7ed64736f6c63430005100032",
  "source": "pragma solidity ^0.5.0;\n\nimport \"./Fundraiser.sol\";\n\n/**\n* @dev Campaign Factory contract to generate Crowdfund smart contract to run Crowd fund\n*/\ncontract FundraiserCreator {\n\n    // list of campaigns\n    address[] public fundraisers;\n    \n    /**\n    * @dev Create new campaign and send default manager is caller\n    * @param minContribution minimum money can contribute for project (in ETH)\n    * @param description description of campaign, purpose of campaign\n    */\n    function createFundraiser(uint minContribution, string memory description) public {\n        address fundraiser = address (new Fundraiser(\n            msg.sender,\n            minContribution,\n            description\n        ));\n\n        fundraisers.push(fundraiser);\n    }\n\n    /**\n    * @dev get all deployed campaigns\n    */\n    function getDeployedFundraisers() public view returns (address[] memory) {\n        return fundraisers;\n    }\n}\n",
  "sourcePath": "/projects/BC-Group4/ethereum/contracts/FundraiserCreator.sol",
  "compiler": {
    "name": "solc",
    "version": "0.5.16+commit.9c3226ce.Emscripten.clang"
  },
  "schemaVersion": "3.4.0",
  "updatedAt": "2021-07-05T19:53:19.675Z",
  "networkType": "ethereum",
  "devdoc": {
    "details": "Campaign Factory contract to generate Crowdfund smart contract to run Crowd fund",
    "methods": {
      "createFundraiser(uint256,string)": {
        "details": "Create new campaign and send default manager is caller",
        "params": {
          "description": "description of campaign, purpose of campaign",
          "minContribution": "minimum money can contribute for project (in ETH)"
        }
      },
      "getDeployedFundraisers()": {
        "details": "get all deployed campaigns"
      }
    }
  },
  "userdoc": {
    "methods": {}
  }
}