{
  "contractName": "Fundraiser",
  "abi": [
    {
      "inputs": [
        {
          "internalType": "address",
          "name": "donation_reciever",
          "type": "address"
        },
        {
          "internalType": "uint256",
          "name": "minContribution",
          "type": "uint256"
        },
        {
          "internalType": "string",
          "name": "description",
          "type": "string"
        }
      ],
      "payable": false,
      "stateMutability": "nonpayable",
      "type": "constructor"
    },
    {
      "constant": true,
      "inputs": [],
      "name": "donationDescription",
      "outputs": [
        {
          "internalType": "string",
          "name": "",
          "type": "string"
        }
      ],
      "payable": false,
      "stateMutability": "view",
      "type": "function"
    },
    {
      "constant": true,
      "inputs": [],
      "name": "donee",
      "outputs": [
        {
          "internalType": "address",
          "name": "",
          "type": "address"
        }
      ],
      "payable": false,
      "stateMutability": "view",
      "type": "function"
    },
    {
      "constant": true,
      "inputs": [
        {
          "internalType": "address",
          "name": "",
          "type": "address"
        }
      ],
      "name": "donor",
      "outputs": [
        {
          "internalType": "bool",
          "name": "",
          "type": "bool"
        }
      ],
      "payable": false,
      "stateMutability": "view",
      "type": "function"
    },
    {
      "constant": true,
      "inputs": [],
      "name": "minimumContribution",
      "outputs": [
        {
          "internalType": "uint256",
          "name": "",
          "type": "uint256"
        }
      ],
      "payable": false,
      "stateMutability": "view",
      "type": "function"
    },
    {
      "constant": true,
      "inputs": [],
      "name": "numberDonors",
      "outputs": [
        {
          "internalType": "uint256",
          "name": "",
          "type": "uint256"
        }
      ],
      "payable": false,
      "stateMutability": "view",
      "type": "function"
    },
    {
      "constant": false,
      "inputs": [],
      "name": "contribute",
      "outputs": [],
      "payable": true,
      "stateMutability": "payable",
      "type": "function"
    },
    {
      "constant": false,
      "inputs": [],
      "name": "donate",
      "outputs": [],
      "payable": true,
      "stateMutability": "payable",
      "type": "function"
    },
    {
      "constant": true,
      "inputs": [],
      "name": "getSummary",
      "outputs": [
        {
          "internalType": "uint256",
          "name": "",
          "type": "uint256"
        },
        {
          "internalType": "uint256",
          "name": "",
          "type": "uint256"
        },
        {
          "internalType": "uint256",
          "name": "",
          "type": "uint256"
        },
        {
          "internalType": "address",
          "name": "",
          "type": "address"
        }
      ],
      "payable": false,
      "stateMutability": "view",
      "type": "function"
    }
  ],
  "bytecode": "0x608060405234801561001057600080fd5b506040516105313803806105318339818101604052606081101561003357600080fd5b8151602083015160408085018051915193959294830192918464010000000082111561005e57600080fd5b90830190602082018581111561007357600080fd5b825164010000000081118282018810171561008d57600080fd5b82525081516020918201929091019080838360005b838110156100ba5781810151838201526020016100a2565b50505050905090810190601f1680156100e75780820380516001836020036101000a031916815260200191505b506040525050600080546001600160a01b0319166001600160a01b038616179055506001829055805161012190600290602084019061012a565b505050506101c5565b828054600181600116156101000203166002900490600052602060002090601f016020900481019282601f1061016b57805160ff1916838001178555610198565b82800160010185558215610198579182015b8281111561019857825182559160200191906001019061017d565b506101a49291506101a8565b5090565b6101c291905b808211156101a457600081556001016101ae565b90565b61035d806101d46000396000f3fe60806040526004361061007b5760003560e01c8063937e09b11161004e578063937e09b114610163578063b5c9aace14610178578063d7bb99ba14610202578063ed88c68e1461020c5761007b565b80634051ddac1461008057806354f0c897146100c45780636c56e647146100f55780637eee89ba1461013c575b600080fd5b34801561008c57600080fd5b50610095610214565b604080519485526020850193909352838301919091526001600160a01b03166060830152519081900360800190f35b3480156100d057600080fd5b506100d961022d565b604080516001600160a01b039092168252519081900360200190f35b34801561010157600080fd5b506101286004803603602081101561011857600080fd5b50356001600160a01b031661023c565b604080519115158252519081900360200190f35b34801561014857600080fd5b50610151610251565b60408051918252519081900360200190f35b34801561016f57600080fd5b50610151610257565b34801561018457600080fd5b5061018d61025d565b6040805160208082528351818301528351919283929083019185019080838360005b838110156101c75781810151838201526020016101af565b50505050905090810190601f1680156101f45780820380516001836020036101000a031916815260200191505b509250505060405180910390f35b61020a6102e8565b005b61020a61031e565b600154600454600054919247926001600160a01b031690565b6000546001600160a01b031681565b60036020526000908152604090205460ff1681565b60045481565b60015481565b6002805460408051602060018416156101000260001901909316849004601f810184900484028201840190925281815292918301828280156102e05780601f106102b5576101008083540402835291602001916102e0565b820191906000526020600020905b8154815290600101906020018083116102c357829003601f168201915b505050505081565b60015434116102f657600080fd5b336000908152600360205260409020805460ff19166001908117909155600480549091019055565b6103266102e8565b56fea265627a7a7231582000cbbd917e3d1e401340b4964fc431106064c37be20c347ce0ecbc4b417cd1d564736f6c63430005100032",
  "source": "pragma solidity ^0.5.0;\n\n/**\n * @title Crowd fund smart contract, demonstration to solve problem of center crowd fund model\n * @author Duong Van Sang\n * @dev Crowd Colla is smart contract is contract that allow creators and entrepreneurs to get fund\n * from supporters for their project, and also let supporter join in approving their expense items\n */\n\n //asdasda\ncontract Fundraiser{ \n\n    // address of the person that recieves the donation\n    address public donee;\n\n    // min contribution value in ETH\n    uint public minimumContribution;\n\n\n    // description about your DonationGoal\n    string public donationDescription;\n\n    // a mapping list of supporter address, to check if address is supporter or not\n    mapping(address=>bool) public donor;\n\n    // current number of donator of campaign, \n    // when any one contribute money for project, he/she will be come supporter\n    uint public numberDonors;\n\n\n    modifier DoneeOnly() {\n        require(msg.sender == donee);\n        _;\n    }\n\n    modifier DonorOnly() {\n        require(donor[msg.sender]);\n        _;\n    }\n\n    /**\n     * @dev init campaign \n     * @param donation_reciever who is author and manage project\n     * @param minContribution minimum money can contribute for project (in ETH)\n     * @param description description of campaign, purpose of campaign\n     */\n\n    constructor(address donation_reciever, uint minContribution, string memory description) public {  \n        donee = donation_reciever;\n        minimumContribution = minContribution;\n        donationDescription = description;\n    }\n\n    /**\n     * @dev payable of campaign, where supporter send Ethereum to contribute for campaign\n     */\n    function contribute() public payable {\n        require(msg.value > minimumContribution);\n        donor[msg.sender] = true;\n        numberDonors++;\n    }\n\n    /**\n     * @dev payable of campaign, where supporter send Ethereum to contribute for campaign\n     */\n    function donate() public payable {\n        contribute();\n    }    \n\n\n    /**\n     * @dev get summary information about campaign\n     */\n    function getSummary() public view returns (\n      uint, uint, uint, address\n      ) {\n        return (\n          minimumContribution,\n          address(this).balance,\n          numberDonors,\n          donee\n        );\n    }\n\n}\n",
  "sourcePath": "/projects/BC-Group4/ethereum/contracts/Fundraiser.sol",
  "compiler": {
    "name": "solc",
    "version": "0.5.16+commit.9c3226ce.Emscripten.clang"
  },
  "schemaVersion": "3.4.0",
  "updatedAt": "2021-07-05T18:33:53.935Z",
  "devdoc": {
    "author": "Duong Van Sang",
    "details": "Crowd Colla is smart contract is contract that allow creators and entrepreneurs to get fund from supporters for their project, and also let supporter join in approving their expense items",
    "methods": {
      "constructor": {
        "details": "init campaign ",
        "params": {
          "description": "description of campaign, purpose of campaign",
          "donation_reciever": "who is author and manage project",
          "minContribution": "minimum money can contribute for project (in ETH)"
        }
      },
      "contribute()": {
        "details": "payable of campaign, where supporter send Ethereum to contribute for campaign"
      },
      "donate()": {
        "details": "payable of campaign, where supporter send Ethereum to contribute for campaign"
      },
      "getSummary()": {
        "details": "get summary information about campaign"
      }
    },
    "title": "Crowd fund smart contract, demonstration to solve problem of center crowd fund model"
  },
  "userdoc": {
    "methods": {}
  }
}